:020000040000FA
:020000001528C1
:040002000034003492
:080008000E280C1220089900DB
:1000100083160313981C0A28831208008C1E1428C8
:100020008C121A08860005200900860187018316B4
:1000300003138601BF3087002430980019309900DF
:100040008C16831290309800C0308B000000323044
:10005000392041203330392041200A3039204120D5
:100060000D303920412041204120412041204120B4
:1000700026280C12990083160313981C0A28831251
:100080000800FF30A3001930A400A40B4528A30BDF
:1000900043280800A501A601A7010830A9000030E7
:1000A000A80703197C280310A80DA70D271E5B289D
:1000B0000314A60D5D280310A60D2712261E632823
:1000C0000314A50D65280310A50D2612A90B692898
:1000D0007C282708AA000530AA02031C72282708DA
:1000E000033EA7002608AA000530AA02031C7B28AD
:0A00F0002608033EA600532808006E
:02400E00F13887
:02401000FF3F70
:00000001FF
