:020000040000FA
:1000000001288316003088008500831200308800A4
:1000100085002030A4002030A200A800422021202A
:10002000392027203920A40B0F28A20B18281E20C6
:100030002208A80042202030A4000F282030A2006F
:100040000800051027082D20880085140800851059
:1000500026082D2088000514080082073F34063446
:100060005B344F3466346D347C3407347F346F3402
:100070000800FF30A0001930A100A10B3D28A00B03
:100080003B280800A501A601A7010830A9000030FF
:10009000A807031974280310A80DA70D271E5328BD
:1000A0000314A60D55280310A60D2712261E5B2843
:1000B0000314A50D5D280310A50D2612A90B6128B8
:1000C00074282708AA000530AA02031C6A282708FA
:1000D000033EA7002608AA000530AA02031C7328C5
:0A00E0002608033EA6004B28080086
:0400EA0000340034AA
:02400E00F13887
:02401000FF3F70
:00000001FF
