:020000040000FA
:10000000012883160030880085000730860003171A
:100010008801890183120313003088008500203095
:10002000A4002030A300A200A8007120061D1928FA
:100030002B285020682056206820A40B1628A20BDD
:10004000222828202208A80071202030A400162889
:100050002308A20008003620432028202208A800F8
:10006000712050206820562068202228061C422833
:100070006820061C4228A30A06183C286820061897
:100080003C2842280800861C4F286820861C4F28E0
:10009000A303861849286820861849284F28080095
:1000A000051027085C2088008514080085102608A4
:1000B0005C2088000514080082073F3406345B3456
:1000C0004F3466346D347C3407347F346F34080029
:1000D000FF30A0001930A100A10B6C28A00B6A28EA
:1000E0000800A501A601A7010830A9000030A80753
:1000F0000319A3280310A80DA70D271E8228031497
:10010000A60D84280310A60D2712261E8A28031484
:10011000A50D8C280310A50D2612A90B9028A32845
:100120002708AA000530AA02031C99282708033EC5
:10013000A7002608AA000530AA02031CA228260848
:08014000033EA6007A28080026
:04014800003400344B
:02400E00F13887
:02401000FF3F70
:00000001FF
