:020000040000FA
:100000000128831600309F000514890186018801AC
:10001000831241309F0089018601880183160317EE
:100020000814881389019730AA004020A0003828BE
:100030008312031333209F149F181C281E08A0004E
:1000400086001F14AA004020A00038288312031342
:1000500020182C2809112D280915A01831288813DB
:100060003228881708000530A200A20B35280800A6
:100070002008A800732052206A2058206A201828DF
:10008000AA0C0310AA0C0310AA0C03102A08AA0C2D
:1000900003102A07AA0C0310AA0C0310AA0C0310C1
:1000A0002A070800891027085E2088000914080024
:1000B000091026085E2088008914080082073F3452
:1000C00006345B344F3466346D347C3407347F340B
:1000D0006F340800FF30A3001930A400A40B6E2871
:1000E000A30B6C280800A501A601A7010830A900F0
:1000F0000030A8070319A5280310A80DA70D271E77
:1001000084280314A60D86280310A60D2712261E88
:100110008C280314A50D8E280310A50D2612A90BFB
:100120009228A5282708AA000530AA02031C9B28AC
:100130002708033EA7002608AA000530AA02031CD0
:0C014000A4282608033EA6007C28080026
:04014C000034003447
:02400E00F13887
:02401000FF3F70
:00000001FF
