:020000040000FA
:100000000128831600309F000514890186018801AC
:10001000831241309F0089018601880183160317EE
:100020000814881389011930AA0014302A02973065
:10003000AA004420A0003C288312031337209F14F9
:100040009F1820281E08A00086001F14AA00442024
:10005000A0003C28831203132018302809113128EE
:100060000915A01835288813362888170800053088
:10007000A200A20B392808002008A80077205620EB
:100080006E205C206E201C28AA0C0310AA0C031002
:10009000AA0C03102A08AA0C03102A07AA0C0310A2
:1000A000AA0C0310AA0C03102A07080089102708BD
:1000B00062208800091408000910260862208800C0
:1000C0008914080082073F3406345B344F346634A9
:1000D0006D347C3407347F346F340800FF30A30064
:1000E0001930A400A40B7228A30B70280800A501E6
:1000F000A601A7010830A9000030A8070319A92804
:100100000310A80DA70D271E88280314A60D8A2802
:100110000310A60D2712261E90280314A50D922861
:100120000310A50D2612A90B9628A9282708AA00B6
:100130000530AA02031C9F282708033EA7002608B3
:10014000AA000530AA02031CA8282608033EA60020
:0401500080280800FB
:04015400003400343F
:02400E00F13887
:02401000FF3F70
:00000001FF
